:020000040800F2
:10000000000005204D4D00089D4D00089D4D000845
:100010009D4D00089D4D00089D4D0008000000000A
:100020000000000000000000000000009D4D0008DE
:100030009D4D0008000000009D4D00081D3F000878
:100040009D4D00089D4D00089D4D00089D4D0008E8
:100050009D4D00089D4D00089D4D00089D4D0008D8
:10006000413F0008493F00089D4D00089D4D000894
:100070009D4D00089D4D00089D4D00089D4D0008B8
:100080009D4D00089D4D00089D4D00089D4D0008A8
:100090009D4D00089D4D00089D4D0008513F0008F2
:1000A0009D4D00089D4D00089D4D00089D4D000888
:1000B0009D4D00089D4D00089D4D00089D4D000878
:1000C0009D4D00089D4D00089D4D00089D4D000868
:1000D0009D4D00089D4D00089D4D00089D4D000858
:1000E0009D4D00089D4D00089D4D00089D4D000848
:1000F0009D4D00089D4D00089D4D00089D4D000838
:100100009D4D00089D4D00089D4D00089D4D000827
:100110009D4D00089D4D00089D4D00089D4D000817
:100120009D4D00089D4D00089D4D00089D4D000807
:100130009D4D00089D4D00089D4D00089D4D0008F7
:100140009D4D00089D4D00089D4D00089D4D0008E7
:100150009D4D00089D4D00089D4D00089D4D0008D7
:100160009D4D00089D4D00089D4D00089D4D0008C7
:100170009D4D00089D4D00089D4D000800000000A9
:100180009D4D00089D4D00089D4D00089D4D0008A7
:100190009D4D00089D4D00089D4D00089D4D000897
:1001A0009D4D00089D4D00089D4D00089D4D000887
:1001B0009D4D00089D4D00089D4D00089D4D000877
:0801C0009D4D00089D4D000853
:1001D00010B5054C237833B9044B13B10448AFF381
:1001E00000800123237010BD780000200000000073
:1001F000606C000808B5034B1BB103490348AFF31B
:10020000008008BD000000007C000020606C000839
:1002100053B94AB9002908BF00281CBF4FF0FF316D
:100220004FF0FF3000F072B9ADF1080C6DE904CE6B
:1002300000F006F8DDF804E0DDE9022304B07047C1
:100240002DE9F047089E04468846002B4BD18A4290
:10025000154667D9B2FA82F24AB1C2F1200701FA13
:1002600002F320FA07F7954047EA030894404FEA63
:10027000154E230CB8FBFEF71FFA85FC0EFB178802
:1002800043EA084307FB0CF1994209D9EB1807F13F
:10029000FF3080F01B81994240F21881023F2B44CD
:1002A0005B1AA4B2B3FBFEF00EFB103344EA034426
:1002B00000FB0CFCA44509D92C1900F1FF3380F098
:1002C0000781A44540F2048102382C4440EA0740EB
:1002D000A4EB0C0400271EB1D4400023C6E9004360
:1002E0003946BDE8F0878B4209D9002E00F0EB803B
:1002F0000027C6E9000138463946BDE8F087B3FA61
:1003000083F7002F47D18B4202D3824200F2FA805A
:10031000841A61EB030301209846002EE0D0C6E961
:100320000048DDE702B9FFDEB2FA82F2002A40F0AF
:100330008F80491B4FEA154E1FFA85F80127B1FB44
:10034000FEFC230C0EFB1C1143EA014308FB0CF1DD
:10035000994207D9EB180CF1FF3002D2994200F212
:10036000CD808446591AA3B2B1FBFEF00EFB1014E7
:1003700043EA044408FB00F8A04507D92C1900F112
:10038000FF3302D2A04500F2B6801846A4EB080461
:1003900040EA0C409FE7C7F1200CBB4022FA0CFE5C
:1003A0004EEA030E01FA07F420FA0CF521FA0CF3D9
:1003B0004FEA1E482543B3FBF8F92C0C08FB193310
:1003C0001FFA8EFA44EA034309FB0AF49C4202FA3C
:1003D00007F200FA07F10BD91EEB030309F1FF3016
:1003E00080F087809C4240F28480A9F10209734426
:1003F0001B1BADB2B3FBF8F008FB103345EA034416
:1004000000FB0AFAA24508D91EEB040400F1FF33F1
:100410006BD2A24569D90238744440EA0940A0FB76
:100420000289A4EB0A044C45C2464B4654D351D032
:10043000002E69D0B1EB0A0564EB030404FA0CFC4E
:10044000FD40FC404CEA0505C6E90054002747E79B
:10045000C2F1200320FA03F7954001FA02F021FAD5
:1004600003F34FEA154E3843010CB3FBFEF71FFAB6
:1004700085F80EFB173341EA034107FB08F38B4273
:1004800004FA02F407D9691807F1FF3C2FD28B4216
:100490002DD9023F2944CB1A81B2B3FBFEF00EFBEB
:1004A000103341EA034100FB08F38B4207D9691876
:1004B00000F1FF3C17D28B4215D902382944C91AE2
:1004C00040EA07473BE73746304609E70746E7E695
:1004D0001846FBE64145ABD2B8EB020A69EB0E02C7
:1004E00001381346A4E76046E9E7184695E76746F2
:1004F000D1E781467CE702382C4447E7ACF1020C97
:100500002B442FE7384608E73746E9E6704700BF37
:1005100001F0FF01102A2BDB10F0070F08D010F8B4
:10052000013B013A8B422DD010F0070F42B3F6D1B8
:10053000F0B441EA012141EA014122F007047FF0D1
:1005400000070023F0E80256083C85EA010586EA28
:10055000010685FA47F5A3FA87F586FA47F6A5FA64
:1005600087F68EB9EED1F0BC01F0FF0102F0070270
:1005700032B110F8013B013A83EA010313B1F8D11B
:100580000020704701387047002D06BF35460338FC
:10059000073815F0010F07D1013015F4807F02BF35
:1005A000013015F4C03F0130F0BC0138704700BF86
:1005B000034613F8012B002AFBD1181A01387047A3
:1005C00038B50D4C4FF47A730C490546227808680B
:1005D000B3FBF2F3B0FBF3F000F0F2F908B90F2D22
:1005E00001D9012038BD002229464FF0FF3000F02C
:1005F000A3F96560002038BD040000200C00002035
:1006000008B5032000F084F90020FFF7D9FF03F0BC
:1006100087F9002008BD00BF034A044B11681B780E
:100620000B441360704700BF8803002004000020C3
:10063000014B1868704700BF88030020002800F0B5
:100640009280F8B5056C0446002D00F08280236C82
:10065000DB0604D50023012084F83C30F8BD236C70
:100660004E4A4F491A4023684E4D42F0020222641E
:100670004A6822F440324A604A68606802434A602D
:100680005A68216922F48072D4F808C0E7685A6079
:100690005868A66A40EA0120AE425860586820F0C7
:1006A00040705860596841EA0C015960996821F41A
:1006B000006199609A6842EA07029A6055D0996889
:1006C000E06A21F0706199609A6816439E609968AB
:1006D00021F0405199609A6802439A609968A5692F
:1006E00021F0020194F8200099609A6842EA4502DC
:1006F0009A60002842D15A6822F400625A60D86A8F
:100700000026E56920F4700094F830C06A1E67691D
:10071000D8623046DD6A45EA0255DD629D6825F4FF
:1007200000759D60996841EA4C219960996821F4AF
:10073000806199609A6842EA87229A606664236CB5
:1007400023F0030343F001032364002384F83C30C7
:10075000F8BD03F0FDF86564236C84F83C50DB06BB
:100760003FF578AF7BE7012070479A6822F070620E
:100770009A609A6822F040529A60AFE75868626ABD
:1007800040F40060511E58605A6822F460425A607A
:100790005A6842EA41325A60B1E700BFFDEEFFFFFE
:1007A000002301400100000F90F83C300022F0B51A
:1007B000012B83B0019200F09A800D68012203683A
:1007C000092D80F83C20AFB28A6828D805EB450691
:1007D0004FF0070C1C690CFA06FC02FA06F624EA34
:1007E0000C041C611A6916431E614E68062E06EB46
:1007F00086022DD8053A1F24596B944007FA02F25D
:1008000021EA04015963596B0A435A633C4A9342F3
:1008100030D0002380F83C30184603B0F0BD07EB21
:1008200047064FF0070CDC681E3EDFF8D8E00CFAF4
:1008300006FC754524EA0C04DC605BD002FA06F67F
:10084000DA681643DE604E68062E06EB8602D1D9C2
:100850000C2E37D8A2F123041F26196BA64007FAE5
:1008600004F221EA060119631C6B1443244A9342E3
:100870001C63CED1122D33D0224B9D4201D0112DBD
:10088000C7D1214A1F4953688D4243F40003536086
:10089000BFD102F146721D4B02F52E321B6802F2E7
:1008A0008332A2FB03239B0C03EB83035B000193C6
:1008B000019B002BADD0019B013B0193019B002BC1
:1008C000F9D1A6E7A2F141011F26DC6A8E4007FAA2
:1008D00001F224EA0604DC62D96A0A43DA6295E787
:1008E000D2F8043343F48003C2F8043391E70220C2
:1008F00003B0F0BDDE6846EA0266DE6075E700BF61
:100900000020014012000010002301400C000020D4
:1009100007490002074BCA6800F4E06010B44FF6C4
:10092000FF0422405DF8044B13431843C86070472E
:1009300000ED00E00000FA05174BDB68C3F302236B
:1009400030B4C3F107051C1D042D28BF0425062C57
:1009500018D9033B4FF0FF349C4022EA04044FF0C7
:10096000FF32002802FA05F221EA020101FA03F23D
:1009700042EA04024FEA0212D2B206DB074B1A54D3
:1009800030BC704700242346E9E700F00F00044B19
:100990001A5430BC704700BF00ED00E000E400E0F6
:1009A00014ED00E0002807DB00F01F0101234009DF
:1009B000024A8B4042F82030704700BF00E100E05F
:1009C0000138B0F1807F0DD2074B0022072130B4EF
:1009D000F025064C5860104684F823509A60196040
:1009E00030BC70470120704710E000E000ED00E0EF
:1009F000002844D0F8B590F835300446002B3BD0A1
:100A0000626802256369E168102A43EA02032069EB
:100A1000A66943EA0103A16884F8355043EA00035C
:100A200043EA0103A16AD4E9085043EA06032668B1
:100A300043EA05033768E56A43EA0003206B43EAAB
:100A40000103104943EA050301EA070143EA0003F1
:100A50003160316843EA010333600AD0F368002251
:100A6000012143F01E031046F360E26484F8351060
:100A7000F8BDE369B361F1E702F0B0FFC0E7012020
:100A8000704700BF07F0E0FFF0B490F83440012C4D
:100A900038D0012590F83540866DAC4280F834504E
:100AA00029D104680227002580F8357045658768DC
:100AB0002568402F25F480252560636026D0A1603D
:100AC000E260C16D3F23026C8B40B360236843F04A
:100AD00016032360636943F0800363611AB12368DE
:100AE00043F0080323602268002342F00102184605
:100AF0002260F0BC70470022022380F834201846A0
:100B0000F0BC70470223F0BC18467047A260E16059
:100B1000D7E700BF2DE9F04FDFF82CC283B08E4637
:100B20000025DFF82892D1F8008003E00135102D70
:100B300000F0B6800123AB4008EA03018B42F5D1F7
:100B4000DEF8044024F01007022F40F0AC80EF08DC
:100B500005F0070A4FF00F0BDEF8102000EB8707B7
:100B60004FEA8A0A3E6A0BFA0AFB02FA0AF24FEAD5
:100B7000450A26EA0B064FF0030B32430BFA0AFB39
:100B800004F003063A626FEA0B02076806FA0AF6F7
:100B900017403E4306608668C4F3001706EA020B5E
:100BA000DEF80C60AF4006FA0AF646EA0B068660ED
:100BB000466826EA03031F434760C668E700DEF87D
:100BC000083002EA060203FA0AF343EA0203C360AA
:100BD000ACD5D9F8446025F0030705F003030F22D4
:100BE00046F4804607F180479B00C9F8446007F54A
:100BF0009C37D9F8446002FA03FA06F4804601965D
:100C0000484E019AB042BA6822EA0A0220D006F59C
:100C10008066B0425ED0444EB04260D0434EB04297
:100C200062D0434EB04264D0424EB0426BD0424E8E
:100C3000B0426DD0414EB04260D0414EB0426CD017
:100C4000404EB0420CBF09260A2606FA03F31A43A7
:100C5000BA60E603DCF800306FEA010205F1010535
:100C600054BF13400B43A703CCF80030DCF804302A
:100C700054BF13400B43E602CCF80430DCF80830D4
:100C800054BF13400B43A402CCF80830DCF80C30FE
:100C900054BF13400B43102DCCF80C307FF44AAFF7
:100CA00003B0BDE8F08F4FEA450A0322D0F800B048
:100CB000013F04EA020602FA0AF2012F6FEA020279
:100CC00006FA0AF602EA0B0B46EA0B0606603FF646
:100CD00074AF60E7012606FA03F31A43B8E7022669
:100CE00006FA03F31A43B3E7032606FA03F31A439B
:100CF000AEE7042606FA03F31A43A9E7072606FA25
:100D000003F31A43A4E7052606FA03F31A439FE701
:100D1000062606FA03F31A439AE7082606FA03F3AF
:100D20001A4395E70000024000080240000C024010
:100D3000001002400014024000180240001C024053
:100D40000020024000240240003C014000380240E4
:100D50000369194214BF01200020704702B9090439
:100D600081617047044A5169014200D1704708B55A
:100D7000506102F035F808BD003C014000284DD01C
:100D8000F8B590F84130044603F0FF02002B40D044
:100D90002421E568D4E9003284F84110012D186857
:100DA00022F07061A26820F0010018601961996852
:100DB00021F40041996028D042F40442022D9A6047
:100DC00002D14FF400625A605A680021144820276B
:100DD000A6691043D4E9042558602A43D868E56918
:100DE00042EA0622266A20F400403543D8600846CD
:100DF000DA601D601A6842F001021A60616484F8CA
:100E00004170216384F84210F8BD42F400429A60B8
:100E1000DAE780F8402002F06BFEB9E70120704766
:100E20000080000290F84130DBB2202B70B41FD15B
:100E300090F84020012A1BD002682424002680F864
:100E400041401568344625F001051560156825F404
:100E500080551560156829431160116841F0010142
:100E6000116080F8406080F84130204670BC7047C7
:100E70000224204670BC704790F84130DBB2202B32
:100E800070B41ED190F84020012A1AD002682424A0
:100E9000002680F841401468354624F001041460AF
:100EA000146824F4706444EA01211160116841F06F
:100EB0000101116080F8406080F84130284670BC24
:100EC00070470225284670BC704700BF024A13686D
:100ED00043F4807313607047007000402DE9F843BD
:100EE000089D80460F4616469946D8F8004001E016
:100EF0006B1C09D1A068384214BF01200020B04209
:100F0000F6D10020BDE8F8832DB1FFF791FBA0EBEF
:100F10000900A842E9D90423012088F84130D8F813
:100F200044300343C8F84430ECE700BFF0B5044652
:100F300083B0FFF77DFB002C45D094F84030012BA7
:100F40004ED00123054684F8403094F8412002F049
:100F5000FF03002A3AD0A76C26682B46A16800221E
:100F60003568481E202125F4F85545EA002520461D
:100F700035600097FFF7B2FF00BBE3680125D4E9B5
:100F800007261343D4E900123343174E0F6843EA90
:100F9000026362693E40A7693343144E0B6042EA24
:100FA00007034F6822693E4043EA024333434B60E4
:100FB0000B682B430B60606484F84150002384F875
:100FC000403003B0F0BD012003B0F0BD84F84030E4
:100FD000204602F0EFFD41F288331F46A364BBE7D1
:100FE000022003B0F0BD00BF2FFFFF00FEF8E0FFBE
:100FF000002800F0348103682DE9F041DD0782B05C
:10100000044635D5AB498A6802F00C02042A00F088
:10101000FE808A6802F00C02082A00F0F4806368FF
:10102000B3F5803F10D0002B00F01B81B3F5A02F4B
:10103000A04B1A6800F0628122F480321A601A68AC
:1010400022F480221A6004E09A4A136843F4803341
:101050001360FFF7EDFA974D064605E0FFF7E8FA53
:10106000801B642800F2EE802B689A03F6D5236873
:101070009F0742D41A0717D56369002B00F0B08090
:101080008C4B5A6F1D4642F001025A67FFF7D0FAA7
:10109000064605E0FFF7CCFA801B022800F2D2805A
:1010A0006B6F9B07F6D523685D076BD5814B1A6C78
:1010B000D00000F1ED801A6C012542F080521A64D4
:1010C0001B6C03F080530193019B7B4B1A68D10585
:1010D00040F1A780A368012B39D0002B00F0DA8003
:1010E000052B744B1A6F00F0118122F001021A6770
:1010F0001A6F22F004021A672EE06E4A916811F00E
:101100000C0F62D0916801F00C0108295AD0E368F5
:10111000002B00F0DF80674B1A681D4642F0010289
:101120001A60FFF785FA064605E0FFF781FA801B93
:10113000022800F287802B689807F6D52B68226971
:1011400023F0F80343EAC2032B60236892E7594A6D
:10115000136F43F001031367FFF76AFA554E804699
:1011600041F2883705E0FFF763FAA0EB0800B842C8
:1011700068D8336F9B07F6D525B14E4A136C23F020
:1011800080531364A369CBB14A4A916801F00C0102
:10119000082921D0022B136800F0C08023F080734F
:1011A00014461360FFF744FA054604E0FFF740FADF
:1011B000401B022846D823689B01F7D4002002B0C8
:1011C000BDE8F08152685602A1D43A4A12689507E8
:1011D0003CD5E268012A39D0012002B0BDE8F08197
:1011E000344B5A6F1D4622F001025A67FFF720FA6E
:1011F000064604E0FFF71CFA801B022822D86B6F1A
:101200009F07F7D44FE74A6850027FF508AF294A95
:10121000126891037FF52CAF6268002A7FF428AF33
:10122000DAE71A681E4642F480721A60FFF700FA85
:1012300007463368DA053FF54DAFFFF7F9F9C01BF4
:101240006428F6D9032002B0BDE8F081194920696D
:101250000A6822F0F80242EAC0020A600AE70120A6
:101260007047144B1A681D4622F480321A601A68BF
:1012700022F480221A60FFF7DBF9064604E0FFF74C
:10128000D7F9801B6428DDD82B689B03F7D4EEE6E2
:1012900000251AE7074B41F288381A6F1E4622F0E4
:1012A00001021A671A6F22F004021A67FFF7C0F9E9
:1012B000074608E00038024000700040FFF7B8F928
:1012C000C01B4045BED8336F9807F7D4002D3FF4BC
:1012D00059AF52E72B4B1A681D4622F001021A60E3
:1012E000FFF7A6F9064604E0FFF7A2F9801B0228E3
:1012F000A8D82B689907F7D42368BBE642F480226C
:101300001A601A6842F480321A60A2E642F00402BF
:101310001A671A6F42F001021A671DE723F0807303
:1013200015461360FFF784F9064604E0FFF780F9DD
:10133000801B022886D82B689901F7D4D4E907329C
:10134000606A1343D4E90A2143F000530D4C52085C
:1013500043EA8013013A43EA016343EA02436B60C4
:101360002B6843F080732B60FFF762F9054605E0B8
:10137000FFF75EF9401B02283FF664AF23689A012D
:10138000F6D51BE700380240164908B58B6803F014
:101390000C03042B1BD0082B17D14A684B6802F0B2
:1013A0003F02496813F4800313D10F48C1F3881139
:1013B000A1FB0001FEF72CFF0A4B5B68C3F301435E
:1013C00001335B00B0FBF3F008BD074808BD0748D8
:1013D00008BD0648C1F388110023A1FB0001FEF7F8
:1013E00017FFE9E7003802400024F40040787D014F
:1013F00078B14A4A136803F00F038B420BD213688B
:1014000023F00F030B431360136803F00F038B42A9
:1014100001D00120704703682DE9F0419D0714D5E4
:101420005C0704D53E4CA26842F4E052A2601A0761
:1014300004D53B4CA26842F46042A260384C8568F7
:10144000A26822F0F0022A43A260DF0704460D469C
:1014500021D54268324B012A1B6856D0022A59D046
:10146000990728D52E4941F288388B680E4623F01B
:10147000030313438B60FFF7DBF8074604E0FFF735
:10148000D7F8C01B404543D8B368626803F00C032B
:10149000B3EB820FF3D1214A136803F00F03AB4281
:1014A0000CD9136823F00F032B431360136803F068
:1014B0000F03AB4202D00120BDE8F08123685A0738
:1014C00006D51749E0688A6822F4E05202438A6030
:1014D0001B0711D4FFF758FF114B12499B68124AA2
:1014E000C3F30313CB5C20FA03F300201360FFF770
:1014F00067F80020BDE8F081094A2169936823F468
:10150000604343EAC1039360E4E79E03AAD4D2E7B1
:101510000320EFE79801A5D4CDE700BF003C0240CF
:10152000003802408C6C00080C000020044B054A77
:101530009B680549C3F382230868D35CD840704791
:10154000003802409C6C00080C000020044B054A47
:101550009B680549C3F342330868D35CD8407047A1
:10156000003802409C6C00080C00002003682DE944
:10157000F04313F0010683B004460BD0B84A9168DB
:1015800021F400019160466B91683143B6FA86F60A
:101590007609916013F4002510D0B149E56BD1F8BC
:1015A0008C20B5F5801F22F4401242EA0502C1F8F2
:1015B0008C2000F0B081B5FA85F56D09D90210D5FF
:1015C000A748216CD0F88C20B1F5800F22F440029E
:1015D00042EA0102C0F88C2000F09B81002908BF7C
:1015E000012513F0807F18BF01269A0600F149817A
:1015F000D9060CD59A4AD2F88C1021F08071C2F825
:101600008C10D2F88C10A06B0143C2F88C105A04D5
:1016100008D59349606ED1F8902022F440320243FD
:10162000C1F890201F0408D58D49A06ED1F89020F4
:1016300022F440220243C1F89020D80308D58849FB
:10164000E06ED1F8902022F440120243C1F89020BD
:10165000990308D58249206FD1F8902022F44002E6
:101660000243C1F890205A0608D57D49606CD1F834
:10167000902022F003020243C1F890201F0608D5F3
:101680007749A06CD1F8902022F00C020243C1F8F7
:101690009020D80508D57249E06CD1F8902022F04E
:1016A00030020243C1F89020990508D56C49206D9D
:1016B000D1F8902022F0C0020243C1F890205A05D0
:1016C00008D56749606DD1F8902022F4407202433A
:1016D000C1F890201F0508D56149A06DD1F8902070
:1016E00022F440620243C1F89020D80408D55C4936
:1016F000E06DD1F8902022F440520243C1F89020CE
:10170000990408D55649206ED1F8902022F4404221
:101710000243C1F890205A0208D55149A06FD1F870
:10172000902022F080620243C1F890209F020CD5E5
:101730004B49E06FD1F89020B0F1006F22F00062C9
:1017400008BF01250243C1F8902013F0080F18BF0D
:101750000125580308D54249606FD1F8902022F046
:1017600040720243C1F8902019020BD4B3F1007FFC
:1017700016D0F20714D4012D00F0D080002003B061
:10178000BDE8F0833649B3F1007FD4F88000D1F88A
:10179000902022F0805242EA0002C1F89020E8D165
:1017A0002F4B1A681E4622F080621A60FEF740FF37
:1017B000074604E0FEF73CFFC01B64285DD8336891
:1017C0001B01F7D42368DF0712D5626B82B9D6F804
:1017D0008420D6F8847002F44032606807F07067A5
:1017E000A1683A4342EA801242EA0172C6F88420B4
:1017F0001E0300F11181D80204D5226CB2F5800FCE
:1018000000F00F81D90111D5154E6068D6F88420FB
:10181000D6F8847002F07062216907F0E0473A431D
:1018200042EA801242EA0142C6F884209A010DD5AC
:10183000236962681B04D4E9021043EA8213084A50
:1018400043EA006343EA0173C2F88430044B1A6828
:101850001E4642F080621A60FEF7EAFE074606E086
:1018600000380240FEF7E4FEC01B642805D8336848
:101870001B01F7D5012D81D150E0032003B0BDE855
:10188000F083874A874B116C1F4641F080511164E9
:10189000126C02F080520192019A1A6842F480722E
:1018A0001A60FEF7C5FE804605E0FEF7C1FEA0EB1C
:1018B00008006428E1D83B68DB05F6D5784A236B3D
:1018C000116F03F4407011F4407111D088420FD0B1
:1018D000116F176F21F4407147F480371767176F46
:1018E00027F4803717671167116FCF0700F1C380A6
:1018F000B0F5407F00F0B18069498A6822F4F8129F
:101900008A60674AC3F30B03116F0B4313672368A5
:101910006EE6012665E6002501264FE6604B1A6853
:101920001D4622F080521A60FEF782FE064604E051
:10193000FEF77EFE801B64289FD82B689F00F7D49B
:1019400023681D0300F19280D8021DD5226CDAB9FC
:1019500053496569D1F88820D1F8886002F4403293
:10196000A06906F0E046324342EA851242EA00628C
:10197000C1F88820D1F88C20A06A22F4F8520138EE
:1019800042EA0022C1F88C20990215D5E26FB2F12B
:10199000006F11D142496569D1F88820D1F888607B
:1019A00002F07062206A06F0E046324342EA851295
:1019B00042EA0042C1F888201A0719D5384A6569F9
:1019C000D2F88810D2F8883001F07061E06903F431
:1019D00040330B4343EA851343EA0073C2F888306F
:1019E000D2F88C30E16A23F440330B43C2F88C30D8
:1019F0002B4B1A681C4642F080521A60FEF718FE04
:101A0000054605E0FEF714FE401B64283FF635AF9F
:101A100023689B00F6D5B1E6E26BB2F5801F7FF438
:101A2000EAAE1F4E6068D6F88420D6F8847002F4BF
:101A30004032E16807F0E0473A4342EA801242EA66
:101A40000162C6F88420D6F88C10626A21F01F016A
:101A5000013A0A43C6F88C20D4E61148124982683C
:101A6000194022F4F8120A4382604AE7E26B002A26
:101A70003FF46EAF68E7174641F28838FEF7D8FDAD
:101A8000814606E0FEF7D4FDA0EB090040453FF695
:101A9000F4AE3B6F9807F5D5236B03F4407027E74E
:101AA0000038024000700040FFFCFF0F037F012B55
:101AB00000F0D78002232DE9F041054601202F6870
:101AC00028776B77002A4DD0BC6814F0400E00F0E8
:101AD000C2800C7B4FEA044E0B6A8C698A781C43E7
:101AE0000B7814434A7844EA034491F8243044EADA
:101AF000022444EA036444EA0E048B6ACA20532297
:101B0000D1F80480CE69B3F5807F78627A6248EAC2
:101B10000608BB6800F0818023F40073BB60BB68DB
:101B200023F40053BB60FEF783FD074605E0FEF794
:101B30007FFDC01BB0F57A7F66D82A68D66816F09C
:101B40000206F4D01462C2F84880936843F400732C
:101B500093600023FF2001215062184669772B779C
:101B6000BDE8F081BE6816F0400C77D091F80CC04B
:101B70004FEA0C4C0B7800200E6A092B06D90A3B61
:101B80000130DBB2092BFAD80001C0B218434B7800
:101B90000024092B4FEA004006D90A3B0134DBB28E
:101BA000092BFAD82401E4B223438C78092C4FEA9C
:101BB00003235AD94FF0000E0A3C0EF1010EE4B295
:101BC000092CF9D84FEA0E1E5FFA8EF891F824E03E
:101BD00044EA0804BEF1090F45D9AEF10A0E0132FC
:101BE0005FFA8EFEBEF1090FF7D81201D2B24EEAAB
:101BF000020E8A69164346EA0C0C4CEA00000343C5
:101C00001C4344EA0E6478E703232A68FF21184640
:101C100051622E776B77BDE8F08123F48073BB604F
:101C2000BB6823F48053BB60FEF702FD074605E066
:101C3000FEF7FEFCC01BB0F57A7FE5D82A68D668AF
:101C400016F00106F4D0D461C2F84480936843F4DE
:101C5000807393607DE781F80CE03DE781F80CC06C
:101C600088E7022070470022C1E74FF00008ADE787
:101C7000026838B5D368044623F0A003D360FEF7AA
:101C8000D7FC054605E0FEF7D3FC401BB0F57A7F94
:101C900005D82368DB689B06F5D5002038BD0320F6
:101CA00038BD00BF38B50368DA68520601D5002098
:101CB00038BD4FF0FF320446DA60FEF7B9FC054646
:101CC0002368DB685B06F2D4FEF7B2FC401BB0F57C
:101CD0007A7FF5D9032038BD002841D0F8B5437F7D
:101CE000044603F0FF02002B36D002202368CA21ED
:101CF00053226077204659625A62FFF7D3FF20BB18
:101D00002368FF2517499E68626831402669A768E5
:101D100032436669996032439E68E1683243012626
:101D20009A601961196941EA0741A7691961D9687F
:101D300021F08001D960D96C21F00801D964DA6CF6
:101D40003A43DA645D626677F8BD2268FF210423B6
:101D5000012051626377F8BD027701F097FFC4E775
:101D600001207047BFFF8FFFF8B5037F012B7CD0A8
:101D70000D46022301210668437704460177B768C0
:101D8000002A33D017F040076BD02F7B3F046878D0
:101D90002A780002AB7840EA024018430743CA227F
:101DA0005323204672627362FFF77CFF06460028C9
:101DB0004DD1374923683940D5E904201960996825
:101DC000024321F48021996099680A439A60DA6895
:101DD00022F08002DA609A68920649D5FF2001213C
:101DE00000225862617722773046F8BD17F040072D
:101DF00039D02F7B3F042B780021092B06D90A3BD1
:101E00000131DBB2092BFAD80901C9B219436B7849
:101E10000020092B4FEA014106D90A3B0130DBB211
:101E2000092BFAD80001C0B20343A87809284FEA69
:101E300003232BD90A380132C0B20928FAD812017B
:101E4000D2B20F4310433B4343EA0007A7E72168A0
:101E5000FF20042200230126486262772377304660
:101E6000F8BD2F7393E72F73C5E702263046F8BD00
:101E70002046FFF7FDFE08B92368AFE72268FF217F
:101E800004235162267701266377ADE70022D8E765
:101E90007F7F7F00037F012B70B56AD00546022348
:101EA00001206B7728770E78CB78760348788C788A
:101EB00012B346EA03431C4344EA00242B68CA21B8
:101EC0005322284659625A62FFF7ECFE0646002864
:101ED00045D1314A2B6822405A60DA6822F08002EC
:101EE000DA609A68920647D5FF20012100225862E5
:101EF00069772A77304670BD10F0100F04D020F0BB
:101F000010000A30C0B24870092B4FF0000106D90A
:101F10000A3B0131DBB2092BFAD80901C9B20B43E4
:101F200009284FF000014FEA034306D90A3801316E
:101F3000C0B20928FAD80901C9B20843092C4FEAEE
:101F4000002127D90A3C0132E4B2092CFAD8120147
:101F5000D0B21E43044346EA01000443AEE72968B9
:101F6000FF2004220023012648626A772B7730463F
:101F700070BD0226304670BD2846FFF779FE08B9CD
:101F80002B68B1E72A68FF21042351622E770126CE
:101F90006B77AFE70020DCE73FFFFF00037F012BFB
:101FA000F0B421D003680226CA2553244677FF26C1
:101FB0009F685D625C62A4F65C04DD6C3C400127B6
:101FC00025F006050C43DD64D96C0A430021DA6470
:101FD0000D469C609A6842F400629A605E624777A0
:101FE00001772846F0BC704702252846F0BC7047B0
:101FF00000285DD0002290F85D302DE9F04182622A
:10200000044603F0FF02002B4DD0E768022322684C
:10201000B7F5E06F84F85D3027F40061136894BF72
:102020004FF48055002523F04003B1F5E06F1360B5
:1020300035D1A66A236B2BB9B7F5E06F8CBF0223AD
:1020400001232363A1684FF00008636820690B43F4
:10205000616903430B43D4E906010B43616A4FEA0C
:10206000104C00F4007E0F43216A0CF0040C404633
:102070000B43616B0F4343EA0E034FF0010E47EA37
:102080000C0733433D4313605560D36923F4006369
:10209000D361C4F8608084F85DE0BDE8F08100237E
:1020A0001E46A362C6E780F85C2001F0FDFDACE7A8
:1020B00001207047F0B4046A8D6824F001040E68B2
:1020C000124A0462036A446823F0020387692B43BF
:1020D0000F4D3A40A84242EA06020AD005F5806553
:1020E000A84206D049684460826141630362F0BC43
:1020F000704723F00803CF684D6924F440748E695B
:102100003B43354323F004032C43EBE78CFFFEFFF6
:1021100000000140F0B4046A8D6824F480740E68F5
:10212000144A0462036A446823F40073C76943EAEB
:102130000523114D3A40A84242EA06020AD005F5AD
:102140008065A84206D049684460C261C1630362E9
:10215000F0BC704723F40063CF684D6924F4405409
:102160008E6943EA0723354323F4806344EA051468
:10217000E9E700BF8CFFFEFF00000140F0B4046AF5
:102180008D6824F480540E680F4A0462036A446820
:1021900023F40053C76943EA05330C4D3A40A84283
:1021A00042EA06220AD005F58065A84206D04968B1
:1021B0004460C26101640362F0BC704724F480444F
:1021C0004D6944EA8514F2E7FF8CFFFE00000140F0
:1021D000F0B4046A8D6824F480340E680F4A0462F7
:1021E000036A446823F40033476D43EA05430C4D0A
:1021F0003A40A84242EA06020AD005F58065A842A4
:1022000006D049684460426581650362F0BC70474E
:1022100024F480344D6944EA0524F2E78FFFFEFF81
:1022200000000140F0B4046A8D6824F480140E6844
:102230000F4A0462036A446823F40013476D43EABB
:1022400005530C4D3A40A84242EA06220AD005F551
:102250008065A84206D0496844604265C165036252
:10226000F0BC704724F480244D6944EA8524F2E7E9
:10227000FF8FFFFE00000140704700BF90F83C3028
:10228000012B5BD002460220136870B482F83D0037
:10229000012598684C4C82F83C500440086840285E
:1022A0009C6076D04CD960282FD058D970281BD08C
:1022B000B0F5005F0FD1CC68D1E9015040EA0501CB
:1022C000986841EA042120F47F40014399609968AD
:1022D00041F48041996000230121184682F83D10A5
:1022E00082F83C3070BC7047D1E90150CC6840EABC
:1022F0000501986841EA042120F47F400143996078
:10230000996841F077019960E5E71C6A4D6824F00F
:102310001004CE681C629869196A20F4704021F09C
:10232000A00140EA063041EA0511986119629968F6
:1023300021F0700141F067019960CCE702207047FD
:10234000102804D03DD9202801D03028C3D1996865
:1023500040F0070021F0700108439860BBE7502867
:10236000B9D11D6A1C6A486825F00A0524F00104E9
:10237000CE6828431C62996921F0F00141EA0611F8
:1023800099611862996821F0700141F057019960D4
:10239000A1E71D6A1C6A486825F00A0524F00104BB
:1023A000CE6828431C62996921F0F00141EA0611C8
:1023B00099611862996821F0700141F047019960B4
:1023C00089E70028C3D086E78800FEFFF0B4324ECC
:1023D000B0F1804F314FA0EB06060368A0EB070772
:1023E000B6FA86F6B7FA87F74FEA56164FEA571746
:1023F00025D026BB2A4A90423ED002F58062904208
:102400003AD002F5806290423BD0002F39D1254A64
:10241000904218D002F58062904214D002F580629A
:10242000904210D0A2F5983290420CD002F5806212
:10243000904208D002F58062904208D103E023F078
:1024400070034D682B4323F44073CD682B434A69D6
:1024500023F080038C6813430A680360C4628262BD
:1024600026B91FB90123F0BC436170470B690363B0
:102470000123F0BC4361704723F070034A681343A3
:10248000E1E7094A23F070034C68904243EA0403F1
:10249000D9D0002FD7D1BAE7000001400004014095
:1024A0000004004000400140000C0040B8B190F82A
:1024B0003D3010B503F0FF0204465BB102232068F3
:1024C000211D84F83D30FFF781FF0123002084F8AF
:1024D0003D3010BD80F83C2001F02CFCEEE70120DF
:1024E000704700BFB8B190F83D3010B503F0FF025F
:1024F00004465BB102232068211D84F83D30FFF7BC
:1025000065FF0123002084F83D3010BD80F83C2099
:10251000FFF7B2FEEEE70120704700BFF0B4046A97
:102520008D6824F010040E68144A0462036A44683B
:1025300023F02003876943EA0513114D3A40A8426E
:1025400042EA06220AD005F58065A84206D049680D
:102550004460826181630362F0BC704723F08003B2
:10256000CF684D6924F440648E6943EA071335430C
:1025700023F0400344EA8504E9E700BFFF8CFFFE37
:102580000000014038B590F83C30012B00F08D8000
:102590000D4602230121044680F83D3080F83C10AE
:1025A000142A1DD8DFE802F00B1C1C1C371C1C1C55
:1025B0004A1C1C1C5C1C1C1C6F1C1C1C2400294677
:1025C0000068FFF777FD23682869996941F00801E1
:1025D0009961996921F0040199619A6902439A61AC
:1025E00000230122184684F83D2084F83C3038BD91
:1025F00029460068FFF716FE23682869596D41F4E3
:1026000000615965596D21F4806159655A6D42EA3E
:1026100000225A65E4E729460068FFF77FFF236838
:102620002869996941F400619961996921F480618F
:1026300099619A6942EA00229A61D1E729460068C5
:10264000FFF768FD23682869D96941F00801D9615D
:10265000D96921F00401D961DA690243DA61BFE77F
:1026600029460068FFF78AFD23682869D96941F483
:102670000061D961D96921F48061D961DA6942EADE
:102680000022DA61ACE729460068FFF7A1FD236864
:102690002869596D41F008015965596D21F004010F
:1026A00059655A6D02435A659AE7022038BD00BF4A
:1026B00090F83C30012B25D00268022370B4134DF2
:1026C00080F83D30AA425368946816D005F58065BD
:1026D000AA4212D00D6824F08004896823F07003A8
:1026E00001262B43214300255360916080F83D6013
:1026F00080F83C50284670BC704723F470034D6846
:102700002B43E7E702231846704700BF0000014053
:10271000F8B5466F202E3BD100293BD0B2FA82F7A4
:102720007F09002F36D190F87040012C30D013462D
:10273000054621220124D0F868E0A0F85230E9646F
:10274000C767A0F85030426780F870400268BEF159
:10275000000F12D0DFF854C028321348CEF840C022
:10276000DFF84CC0CEF83C007046CEF85070CEF882
:102770004CC0FEF789F978B92A684023002113621A
:102780000846936885F8701043F080039360F8BDA5
:102790000220F8BD0120F8BD102385F87070204696
:1027A000EB676E67F8BD00BFB9270008E92700088E
:1027B000F9270008704700BF08B5C369806BB3F5FF
:1027C000807F0CD003680022A0F852209A6822F083
:1027D00080029A601A6842F040021A6008BDFFF752
:1027E000E9FF08BD704700BF08B5806BFFF7FAFF2F
:1027F00008BD00BF704700BF836B1A6810B55C6FDF
:10280000986F9168090601D5212C1BD09168490663
:1028100001D5222807D0DA6F184642F01002DA6795
:10282000FFF7E8FF10BD00202024A3F85A0011682C
:1028300021F490711160916821F001019160186696
:102840009C67E8E700212024A3F85210116821F0CA
:10285000C00111605C67D9E7F8B504468368AF49E9
:10286000E669E768AE4DD0E904201A4323680243C5
:102870001868AB4201EA000142EA060242EA01029C
:10288000A1691A605868226A20F4405042EA0102A5
:1028900040EA07005860996821F4306142EA010279
:1028A0009A6041D09F4A93421BD09F4A934200F0C6
:1028B000B1809E4A934200F0DF809D4A934253D0FC
:1028C0009C4A934200F0BE809B4A934200F00581EF
:1028D0009A4A934200F0118100230120C4E9183381
:1028E000F8BD02F5FA32964BD2F8902002F00C02B5
:1028F00013441B79B6F5004F1ED0082BECD801A26B
:1029000052F823F0032A000895290008B32A00088A
:10291000D92800085B2A0008D9280008D92800080F
:10292000D9280008352A0008864B854AD3F890300C
:1029300003F00303D35CDDE7082BCDD801A252F8E6
:1029400023F000BF6D2A0008BF290008932A000861
:10295000D9280008732A0008D9280008D9280008B7
:10296000D9280008A32A0008764BD3F8903003F446
:102970004073B3F5807F6DD03DD9B3F5007F00F093
:102980008580B3F5407F52D0A6E7002BA4D1B6F5E1
:10299000004F14D0FEF7DAFD626800EB5203B3FB80
:1029A000F2F39BB2A3F110014FF6EF72914293D86C
:1029B00022680020D3600023C4E91833F8BDFEF775
:1029C000C5FD6268530803EB4003B3FBF2F39BB20F
:1029D000A3F110014FF6EF7291423FF67DAF23F065
:1029E0000F02C3F34203216800201343CB6000238E
:1029F000C4E91833F8BD002B7FF46EAFB6F5004F75
:102A000034D0FEF793FD626800EB5203B3FBF2F3A0
:102A10009BB2C7E74B4BD3F8903003F03003102B39
:102A200018D0E8D9202B31D0302B7FF455AFB6F534
:102A3000004F36D06268530803F50043B3FBF2F34E
:102A40009BB2AFE73F4BD3F8903003F44063B3F54C
:102A5000806F36D1B6F5004F0BD0FEF795FC62685B
:102A600000EB5203B3FBF2F39BB29BE7FEF75EFD74
:102A7000A7E7FEF789FCA4E7324BD3F8903003F0C8
:102A8000C003402BE6D0B6D9802B23D1B6F5004F3A
:102A90000FD162682C4B03EB5203B3FBF2F39BB2F2
:102AA00096E76268530803F58033B3FBF2F39BB2F9
:102AB0008EE76268254B03EB5203B3FBF2F39BB244
:102AC00070E77FF662AFB3F5006FDFD0B3F5406F0C
:102AD000ADD001E7C02BAAD0FEE61A4BD3F8903058
:102AE00003F44053B3F5805FB4D084D9B3F5005FED
:102AF000CCD0B3F5405F9AD0EEE6124BD3F89030CD
:102B000003F44043B3F5804FA4D07FF674AFB3F520
:102B1000004FBBD0B3F5404F89D0DDE6F369FFEF3E
:102B2000001001400044004000480040004C0040BC
:102B3000005000400014014000780040007C00403C
:102B4000786C0008003802400048E8010024F400D6
:102B5000436ADA0710B406D50168846A4A6822F429
:102B6000003222434A609C0706D50168C46A4A685D
:102B700022F4803222434A60590706D50168046B6B
:102B80004A6822F4802222434A601A0706D5016867
:102B9000446B4A6822F4004222434A60DC0606D5B0
:102BA0000168846B8A6822F4805222438A60990605
:102BB00006D50168C46B8A6822F4005222438A60F9
:102BC0005A060AD50168046C4A68B4F5801F22F4DD
:102BD000801242EA04024A600BD01B0606D5026846
:102BE000816C536823F400230B4353605DF8044B5E
:102BF00070474A68446C22F4C00222434A60ECE702
:102C00002DE9F843089D80460F4616469946D8F8A8
:102C1000004001E06B1C0AD1E06937EA00030CBFF9
:102C200001200020B042F5D00020BDE8F883FDF778
:102C3000FFFCA0EB0900A84201D8002DE7D1D8F88D
:102C400000302021002403201A6822F4D0721A6078
:102C50009A6822F001029A60C8F8741088F87040EF
:102C6000C8F87810E1E700BF2DE9F0411F46436F37
:102C700084B0202B3ED10D4600293FD0B2FA82F617
:102C800003927609002E39D190F870300446012B5A
:102C900030D021230121C66780F870104367FDF70B
:102CA000C7FCA368039A8046B3F5805FA4F8502060
:102CB000A4F8522009D136E015F8012B9A62B4F835
:102CC0005230013B9BB2A4F85230B4F85230009716
:102CD0009BB2DBB14346002280212046FFF790FFE4
:102CE00080B92368002DE7D136F8022BC2F3080221
:102CF0009A62E4E7022004B0BDE8F081012004B04C
:102D0000BDE8F081032004B0BDE8F0814346002215
:102D100040212046FFF774FF0028F3D1202384F8D8
:102D200070006367E7E72369002BCED12E461D466E
:102D3000CBE700BF70B50025044682B0C567FDF73C
:102D400077FC22681268130708D400232022184653
:102D5000626784F87030A26702B070BD6FF07E4683
:102D600003462A464FF4001100962046FFF748FF1D
:102D70000028EAD0032002B070BD00BF70B3436FDB
:102D800010B50446FBB1226824232046636713680C
:102D900023F001031360FFF75FFD012818D0636A79
:102DA000C3B9236820465A6822F490425A609A6850
:102DB00022F02A029A601A6842F00102BDE810402F
:102DC0001A60FFF7B7BF80F8703001F037F8DAE724
:102DD000012010BD2046FFF7BBFEE2E7012070474F
:102DE000082807D004D9402804D0802802D0704792
:102DF0000428FCD110B50E4C2378BFF35B8FDB07A2
:102E000004D50C48BDE8104001F064BD204602F036
:102E100088FD0028F5D0074801F086FD204602F025
:102E20008CFD054A0549034802F0A9FDE9E700BF0A
:102E3000C8020020CC0200200000002065480008E5
:102E400070B5B4B0302200214FF4803507A80224B9
:102E500002F04EFE0023842213A819460693092689
:102E6000CDE90233CDE9043302F042FEFEF72EF83D
:102E7000264B274A07A8196C41F08051196401219B
:102E80001B6C03F080530093009B136823F44043B2
:102E900043F40043136013684FF4A87208954FF48D
:102EA000800503F440430C91192107960193019B7F
:102EB00007230D94119410921293CDE90E51FEF751
:102EC00097F800B1FEE703464FF480520F264FF407
:102ED000A05502A80521049303940296CDE905525A
:102EE000FEF786FA034600B1FEE70A494FF4007286
:102EF00013A8249329932C932E9313911F92FEF7DA
:102F000035FB00B1FEE734B070BD00BF00380240B1
:102F100000700040604801002DE98048A1B0002405
:102F2000FDF76EFB0225FFF78BFFD24B16941021A5
:102F300015944FF008091794224618944FF00E0B81
:102F4000199403271E6B4FF00C08CB484FF00A0A68
:102F500046EA010C0126C3F830C0D3F830C00CEAB1
:102F6000010CCDF804C0DDF804C0D3F830C04CF03B
:102F7000400CC3F830C0D3F830C00CF0400CCDF892
:102F800008C0DDF808C0D3F830C04CEA050CC3F81F
:102F900030C0D3F830C00CEA050CCDF80CC0DDF819
:102FA0000CC0D3F830C04CEA090CC3F830C0D3F8D9
:102FB00030C00CEA090CCDF810C0DDF810C0D3F811
:102FC00030C04CF0040CC3F830C0D3F830C00CF063
:102FD000040CCDF814C0DDF814C0D3F830C04CEAAE
:102FE000060CC3F830C0D3F830C00CEA060CCDF89C
:102FF00018C0DDF818C0D3F830C04CF4007CC3F81A
:1030000030C0D3F830C00CF4007CCDF81CC0DDF823
:103010001CC0D3F830C04CF4807CC3F830C0D3F867
:1030200030C00CF4807CCDF820C0DDF820C0D3F88F
:1030300030C04CF4806CC3F830C0D3F830C00CF40E
:10304000806CCDF824C0DDF824C0D3F830C04CF03B
:10305000200CC3F830C0D3F830C00CF0200CCDF8F1
:1030600028C0DDF828C0D3F830C04CF0800CC3F87D
:1030700030C01B6B03F080030B930B9BFDF76EFEC0
:1030800022464FF401417D48FDF768FE324620217B
:103090007B48FDF763FE224649467A48FDF75EFE0F
:1030A00022464FF480517848FDF758FE22464FF4EF
:1030B00001517648FDF752FE224649467448FDF715
:1030C0004DFE102315A97348CDF864B0CDE9153530
:1030D000CDE91744FDF71EFD15A96E48CDF85490B3
:1030E000CDE91644FDF716FD4FF4D04315A9684805
:1030F00015930B2318971993CDE91654FDF70AFD84
:103100004FF6837315A9634815931897CDF864801B
:10311000CDE91654FDF7FEFC43F6234315A95648A6
:1031200015931897CDF864A0CDE91654FDF7F2FC7D
:10313000102315A9504815931696CDE91744FDF7AD
:10314000E9FC802315A94E481593CDE91654CDE925
:103150001849FDF7DFFC4FF4F85315A94E481593B5
:10316000CDE91654CDE91878FDF7D4FC4FF40143AE
:1031700015A9424815931894CDE91664FDF7CAFCC9
:1031800048F2331315A942481593CDE91654CDE9F9
:103190001878FDF7BFFC4EF6FF7315A93F4815934D
:1031A000CDE91654CDE9184BFDF7B4FC4FF480532C
:1031B00015A93A481593CDE91644FDF7ABFC4CF23E
:1031C000037315A92E481593CDE91654CDE9187847
:1031D000FDF7A0FC4FF4E05315A928481593CDE95D
:1031E0001654CDE9187AFDF795FCF02315A9264869
:1031F0001593CDE91654CDE9184AFDF78BFCF7235A
:1032000015A920481593CDE91654CDE9184BFDF7C3
:1032100081FC4FF4805315A91D48CDE915350923CC
:10322000CDE917441993FDF775FC4FF4806315A998
:1032300017481593CDE91654CDE9184AFDF76AFCF5
:10324000202315A90E4815931894CDE91664FDF7AF
:1032500061FC134B15A90C481693CDF854801796B2
:10326000FDF758FC4FF4005315A90B481593CDE911
:10327000164417E0003802400004024000000240FB
:10328000000C02400028024000200240001C0240C6
:1032900000180240001002400008024000240240D2
:1032A00000003110FDF736FC4FF63F0315A9AD487D
:1032B0001593CDE91654CDE91878FDF72BFC4FF4A2
:1032C000464315A9A8481593CDF864B04FF0280BD4
:1032D0001894CDE91654FDF71DFC15A9A348CDF8A7
:1032E00054901894CDE91664FDF714FC102315A929
:1032F0009F481794CDE91534FDF70CFC042315A95C
:103300009B481593CDE91654CDE91878FDF702FCDA
:1033100048F2040315A997481593CDE91644FDF723
:10332000F9FB4FF4805315A98F48CDE91536CDE947
:103330001744FDF7EFFB4FF4015315A98D48159382
:103340001894CDE91664FDF7E5FB4FF400528A4B63
:1033500015A985481592CDE91634FDF7DBFB10233E
:1033600015A98448CDF864A0CDE91535CDE91747F6
:10337000FDF7D0FB15A97F48CDF854B0CDE9165420
:10338000CDE91878FDF7C6FB7C4AC02315A97C4817
:103390001593CDE91626FDF7BDFB15A97948CDF8A3
:1033A0006480CDE91595CDE91747FDF7B3FB0523FB
:1033B00015A974481593CDE91654CDE9187AFDF78F
:1033C000A9FB0B22322315A96E4819921593189761
:1033D000CDE91654FDF79EFB15A96948CDE9159670
:1033E000CDE91744FDF796FB042315A9644817940B
:1033F000CDE91534FDF78EFB86230B2215A9624813
:10340000159319921897CDE91654FDF783FB5E4882
:1034100015A9CDF864A0CDE915B5CDE91747FDF79D
:1034200079FB224621464846FDF786FA4846FDF7D5
:10343000B9FA224621460920FDF77EFA0920FDF758
:10344000B1FA224621461720504DFDF775FA172094
:10345000FDF7A8FA4E494FF480324E4B2846EE61F4
:103460006E61AC602C61AC6185F82040EC62EC6070
:1034700085F83040AB62CDE91544CDE91744C5E984
:103480000012FDF7DBF800B1FEE7034604222846F0
:1034900015A91793CDE91526FDF786F9024600B167
:1034A000FEE73D4B3D4918461A631960C3E9012206
:1034B000C3E90322C3E90522C3E90822C3E90A22BA
:1034C000FDF796FA034600B1FEE7354C354A364D16
:1034D00020462362C4E90236C4E90433C4E9063352
:1034E000C4E90025FDF74AFC014600B1FEE720468D
:1034F000FDF798FC014600B1FEE72046FDF7BCFC55
:10350000034600B1FEE7294C294A20466560236244
:103510002260C4E90236C4E90433C4E90633FDF786
:103520002DFC014600B1FEE72046FDF77BFC01467D
:1035300000B1FEE72046FDF79FFC024600B1FEE722
:103540001C4BFF211C4C18469E60C3E90326C3E9AF
:103550000522C3E90722C3E90041FDF7E7FC68B390
:10356000FEE700BF00140240002002400028024095
:10357000000C0240001C024000001210000031103C
:1035800000180240000802400000024048050020E8
:10359000002201400100000F9005002000000550AE
:1035A0007C04002000540040F7A3A0008C030020FE
:1035B000005C004080070020001000A00025A44C03
:1035C0002C2215A829460F950C951495CDE9105578
:1035D000CDE9125502F08CFAFF239E497F22204646
:1035E000656025612160C4E90223C4E90555FEF741
:1035F00073FB034600B1FEE701220FA92046ADF898
:103600003C308DF83E30CDE91333FEF7ADFB00B111
:10361000FEE7914B20AD0122204645F8503D29465A
:10362000FEF738FC034600B1FEE701264FF4807731
:1036300015A920463246ADF854308DF85630169311
:103640001D938DF878601F97CDE91933CDE91B33B1
:10365000FEF72CFA00B1FEE74FF4007715A93246C9
:1036600020468DF878601F97FEF720FA014600B1DA
:10367000FEE720460222FEF791FC00B1FEE7774B01
:103680000721DFF800C208224FF482764FF440741D
:10369000986018639F61DC60D9625A63C3E90400D3
:1036A000C3E90700C3E909001846C3E900C6FEF7ED
:1036B0009FFC034600B1FEE7694C6A4A159020461C
:1036C000189311932260CDE91633CDE90F33C4E985
:1036D0000133C4E90333C4E90533FEF7E7FE00B163
:1036E000FEE74FF4805315A920461593FEF7C6FD5B
:1036F000034600B1FEE720460FA91193CDE90F3331
:10370000FEF7D6FF00B1FEE7574C00234FF0804292
:10371000204611932361A361C4E90023CDE9153349
:10372000CDE91733CDE90F33C4E90233FEF7BEFE0E
:1037300000B1FEE74FF4805615A920461596FEF716
:103740009DFD034600B1FEE720460FA90F9311939C
:10375000FEF7AEFF034600B1FEE7444C444A159025
:10376000204618931193A3612260CDE91633CDE969
:103770000F33C4E90133C4E90333FEF797FE00B108
:10378000FEE715A920461596FEF778FD034600B121
:10379000FEE720460FA90F931193FEF789FF03461A
:1037A00000B1FEE7334C344A0F90204612930C933D
:1037B0001B93A3612260CDE91033C5E90133CDE944
:1037C0001533CDE91733CDE91933C4E90133C4E921
:1037D0000333FEF76BFE00B1FEE70FA920460F96FC
:1037E000FEF74CFD00B1FEE72046FEF77BFE0346E8
:1037F00000B1FEE7294620460C930E93FEF758FFD2
:1038000000B1FEE7602000230C2215A9159019488D
:103810001993CDE91633FEF7B5FE044600B1FEE775
:10382000164D144800F0E0FA154B284611942B6011
:10383000CDE91544CDE91744CDE90F44C5E901446C
:10384000C5E90344C5E90544FEF730FEE0B1FEE7F3
:10385000600600200028004001010100D80300207C
:1038600080060020000001404007002008050020DD
:1038700000040040C8040020000C00403C0400206C
:1038800000040140003800404FF4805315A9284639
:103890001593FEF7F3FC034600B1FEE70FA9284697
:1038A0001193CDE90F33FEF703FF024600B1FEE7A7
:1038B000174B4FF4E13517490C2418461A615C6127
:1038C000C3E90222C3E90622C3E90822C3E90015BD
:1038D000FFF754FA024600B1FEE70F4B0F491846B6
:1038E0005A621960C3E90152C3E90322C3E90542E0
:1038F000C3E90722FFF742FA00B1FEE70A2001F010
:103900005DFE00F07FFC00F00BFD01F083FEFEE7A2
:10391000E005002000100140C00600200014014016
:103920000A4B82B01A6C42F080521A641A6C02F090
:1039300080520092009A5A6C42F480425A645B6C46
:1039400003F480430193019B02B0704700380240AA
:1039500002681F4B30B59A4289B04FF00004CDE9A0
:103960000344CDE90544079401D009B030BD03F507
:103970008B334FF4F860032503A95A6C42F480623C
:103980005A645A6C02F480620092009A1A6B42F0F8
:1039900020021A631A6B02F020020192019A1A6B3C
:1039A00042F001021A631B6B039003F00103094804
:1039B00004950293029BFDF7ADF8012303A9064885
:1039C0000393CDE90454FDF7A5F809B030BD00BF5D
:1039D00000220140001402400000024002683D4BFA
:1039E00070B59A428CB04FF00004CDE90744CDE9A0
:1039F00009440B9401D00CB070BD374B60200226F7
:103A00000D255A6B07A942F001025A635A6B02F066
:103A100001020192019A1A6B42F010021A631A6BAA
:103A200002F010020292029A1A6B42F008021A6324
:103A30001A6B02F008020392039A1A6B42F04002DA
:103A40001A631A6B02F040020492049A1A6B42F055
:103A500080021A631A6B02F080020592059A1A6BB3
:103A600042F001021A631B6B079003F001031B482D
:103A700008960693069B0B95FDF74CF8082307A9BB
:103A80001748079308960B95CDE90944FDF742F8CE
:103A90004FF4007307A91348079308960B95CDE9D7
:103AA0000944FDF737F84FF4BC4307A90E480793C4
:103AB00008960B95CDE90944FDF72CF8502307A98A
:103AC0000A4808960B950793CDE90944FDF722F8BB
:103AD0000CB070BD000005500038024000100240DC
:103AE000000C024000180240001C0240000002408E
:103AF000026800232A4970B58A428AB0CDE90533AD
:103B0000CDE90733099328D0264B9A4201D00AB059
:103B100070BD254C122201204FF4C076236B032583
:103B200005A943F080032363236B0692042203F06C
:103B3000800307901D480393039B0596CDE9085227
:103B4000FCF7E8FF236C43F400032364236C03F4C5
:103B500000030493049B0AB070BD134C122004228E
:103B60004FF44076236B012505A943F0020323633C
:103B7000236B069003F002030D4805960193019B09
:103B800007950992FCF7C6FF236C43F400132364E6
:103B9000236C03F400130293029B0AB070BD00BFB4
:103BA00000540040005C004000380240001C02400D
:103BB000000402400268304B2DE9F0419A428AB07D
:103BC0004FF00004CDE90544CDE90744099402D043
:103BD0000AB0BDE8F081294B0226032509279A6B1C
:103BE0004FF0040805A9264832439A639A6B324085
:103BF0000192019A1A6B42F010021A631A6B02F0DA
:103C000010020292029A1A6B32431A631A6B324004
:103C10000392039A1A6B42F008021A631B6BCDF8E9
:103C2000148003F00803069608950493049B0997F3
:103C3000FCF770FF40220A2305A912480592099358
:103C40000696CDE90745FCF765FF05A90D480794E1
:103C5000CDE90586CDE90857FCF75CFF4FF46053CA
:103C600005A90948069607940593CDE90857FCF77E
:103C700051FF0AB0BDE8F081001000A000380240FA
:103C80000010024000040240000C02400268044B95
:103C90009A4204D1034A136F43F4004313677047F9
:103CA000002800400038024002681F4B70B59A425D
:103CB00088B04FF00004CDE90344CDE905440794F2
:103CC00001D008B070BD03F500330225052603A915
:103CD0001A6C164842F480421A641A6C02F480424C
:103CE0000092009A1A6B42F480721A631A6B02F403
:103CF00080720192019A1A6B2A431A631B6B039517
:103D00002B40049507960293029BFCF703FF4FF4A8
:103D1000404303A90648049507960393CDE905445B
:103D2000FCF7F8FE08B070BD0038004000200240EB
:103D300000040240036886B0264A93420DD0B3F1D6
:103D4000804F2DD0244A934213D0244A934234D03A
:103D5000234A934219D006B07047224B5A6C42F066
:103D600001025A645B6C03F001030193019B06B0EE
:103D700070471C4B1A6C42F002021A641B6C03F071
:103D800002030393039B06B07047164B5A6C42F034
:103D900002025A645B6C03F002030593059BDAE7A9
:103DA00003F50E331A6C42F001021A641B6C03F027
:103DB00001030293029B06B070470A4B1A6C42F053
:103DC00008021A641B6C03F008030493049B06B0FA
:103DD000704700BF0000014000040040000C00409C
:103DE000000401400038024001680023104A30B549
:103DF000914287B0CDE90133CDE90333059301D07A
:103E000007B030BD0B4B0224012501A91A6B0A48EB
:103E100042F480721A631B6B019503F48073029461
:103E200005940093009BFCF775FE07B030BD00BF02
:103E3000000C004000380240002002400368314A74
:103E400070B593428AB04FF00004CDE90544CDE946
:103E50000744099425D02C4A934201D00AB070BD82
:103E60002A4BC020022605A95A6C0325082442F0DB
:103E700020025A645A6C02F020020392039A1A6BD1
:103E800042F004021A631B6B059003F00403204800
:103E900006960493049BCDE90854FCF73BFE0AB058
:103EA00070BD1A4B0226802007255A6C05A942F0E6
:103EB00010025A645A6C02F010020092009A1A6BB7
:103EC00032431A631A6B32400192019A1A6B42F024
:103ED00001021A631B6B059003F001030D4806965F
:103EE0000293029B0995FCF715FE4FF4007305A998
:103EF0000948069609950593CDE90744FCF70AFEA3
:103F00000AB070BD001001400014014000380240AA
:103F100000080240000402400000024010B5FCF717
:103F20007BFBFCF785FB044601F0DAFCB4FBF0F305
:103F300003FB104000B110BDBDE8104001F0C2BC51
:103F40000420FCF70FBF00BF0820FCF70BBF00BF29
:103F500008B54020FCF706FF8020BDE80840FCF7CC
:103F600001BF00BF0120704708B501F051FD1623C5
:103F700003604FF0FF3008BD08B501F049FD16237E
:103F80000360FEE770B5161E07DD0C468D19AFF312
:103F9000008004F8010BA542F9D1304670BD00BF86
:103FA00070B5161E07DD0C468D1914F8010BAFF322
:103FB0000080A542F9D1304670BD00BF0C4A08B55B
:103FC000136833B118446946884209D8106018460E
:103FD00008BD08490B461160694618448842F5D966
:103FE00001F016FD0C224FF0FF330260184608BDA9
:103FF00094000020D00700204FF0FF30704700BF32
:104000004FF4005300204B60704700BF0120704701
:10401000002070470F4A104BD2F888000F4940F437
:10402000700070B4C2F88800002418684FF0006572
:104030000B4E40F0010018609C6018680140196048
:104040005E60196821F480211960DC60956070BCA5
:10405000704700BF00ED00E000380240FFFFF6FEB1
:1040600010300024064B03F10802243310B5044637
:10407000026040F8043F00F0E9FE204610BD00BF9A
:10408000A46C0008A0F10400FFF7ECBF084B03F19B
:104090000802243310B50446026040F8043F00F0E3
:1040A000D5FE2046182101F06FFC204610BD00BF50
:1040B000A46C0008A0F10400FFF7E8BF2DE9F0416F
:1040C00004460F46182062680434D56801F018FCD5
:1040D0000646394600F08EF9204631462B46BDE8AB
:1040E000F04118472DE9F04104460F461820626858
:1040F0000434D56801F004FC0646394600F062F944
:10410000204631462B46BDE8F0411847037D012B80
:1041100010B5044610D0022B0CD10434204600F018
:1041200099FE83682046042B19D000F093FE836823
:10413000052B0BD0002010BD043000F08BFE90F951
:1041400004000128F6D10223237510BD204600F09B
:1041500081FE4169064800F03BFD012010BD00F0E2
:1041600079FE4169034800F033FD012010BD00BF16
:104170009870000868700008A0F10400FFF7C6BF3F
:10418000084B002110B5044640F8043B00F038FE0F
:10419000054B0121204603F1080224332175C4E9AF
:1041A000002310BD58700008A46C000838B5114CED
:1041B00005462378BFF35B8FDB0705D529460E48FC
:1041C000BDE8384000F04CB9204601F0AAFB0028B9
:1041D000F4D0094800F0A4F9204601F0AEFB0749ED
:1041E000074A054801F0CBFB29460348BDE83840A3
:1041F00000F036B9F8020020FC02002089440008D3
:1042000000000020704700BF38B5384C384800F037
:10421000DFFC2378BFF35B8FD8071ED5354D3648BA
:10422000FFF7C4FF2B78BFF35B8FD9074CD5334D15
:10423000334800F0CFFD2B78BFF35B8FDA0732D520
:10424000304800F089F92378BFF35B8FDB0715D581
:104250002D48BDE8384000F0BDBD204601F061FBAF
:104260000028DBD02448FFF78BFF204601F065FBD8
:10427000264A2749204801F082FBCFE71B4801F07E
:1042800050FB0028E4D01C48FFF77AFF174801F0E4
:1042900054FB1E4A1E49184801F071FB1A48BDE83C
:1042A000384000F097BD284601F03BFB0028C7D0FE
:1042B000144800F035F9284601F03FFB134A154930
:1042C000104801F05CFBBBE7284601F02AFB002800
:1042D000ADD0114800F028FB284601F02EFB0B4A18
:1042E0000E490D4801F04BFBA1E700BF6003002021
:1042F000C8700008C802002064030020F8020020F3
:10430000D4020020FC0200206803002000000020EE
:104310006540000889440008CC0200206548000878
:10432000FFF772BF007C7047704700BF10B50446AE
:10433000142101F029FB204610BD00BF10B500225A
:104340000121044600F0A6FD024A00232046226017
:10435000237410BDFC700008704700BF10B5044600
:10436000142101F011FB204610BD00BF10B5002242
:104370000221044600F08EFD014B2046236010BD53
:1043800010710008704700BF10B50446142101F0F9
:10439000FBFA204610BD00BF10B5002203210446E1
:1043A00000F078FD014B2046236010BD2471000809
:1043B000704700BF10B50446182101F0E5FA204609
:1043C00010BD00BF38B500220D460421044600F0A0
:1043D00061FD024B65612046236038BDF06C00082A
:1043E000704700BF10B50446182101F0CDFA2046F1
:1043F00010BD00BF38B500220D460521044600F06F
:1044000049FD024B65612046236038BD046D0008FC
:1044100070B5054655F8084FAC4208D00E46A06866
:10442000314603689B6898472468AC42F7D170BD59
:10443000A0F10400FFF7ECBF70B5054655F8084F32
:10444000AC4208D00E46A06831460368DB68984746
:104450002468AC42F7D170BDA0F10400FFF7ECBFB7
:1044600070B504460E460C20A56801F049FA866036
:10447000294601F08BFA236901200344236170BDB2
:10448000A0F10400FFF7ECBF0F4B70B503F1200261
:10449000064600F1140500F16404C0E9003254F846
:1044A000143D1B6820469847A542F8D1354655F87B
:1044B000080FA84205D0046801F042FAAC42204639
:1044C000F9D1304670BD00BF186D0008A0F104009E
:1044D000FFF7DABF10B50446FFF7D6FF6421204688
:1044E00001F052FA204610BDA0F10400FFF7F2BF20
:1044F00070B5064656F8084FB4420CD005462B69F5
:104500002046013B2B6101F048FA204601F018FAE1
:104510002468B442F3D170BDA0F10400FFF7E8BFF6
:1045200070B50C4A0546002102F1200005F1080390
:1045300005F1140405F164062A6068602961C5E983
:1045400002332046143400F069F9A642F9D1284616
:1045500070BD00BF186D000830B51A4C83B0054619
:104560002378BFF35B8FDB071BD50023164A05F1C9
:10457000140429461D461548CDE9002302AB13E972
:104580000C0000F05BF9E9B2204600F055F9236811
:10459000013520469B6814349847042DF3D103B0AD
:1045A00030BD204601F0BDF90028DED0074800F0FC
:1045B000BBF9204601F0C1F9054A0649034801F05C
:1045C000DEF9D2E7C8020020D9450008CC0200205D
:1045D0000000002065480008082970B539D026D9A8
:1045E000402912D0802933D1C36B00F13C04142040
:1045F000DD688AB901F084F90646FFF7CDFE204652
:1046000031462B46BDE870401847036D00F1500459
:104610001420DD68002AEDD001F072F90646FFF79C
:10462000A5FE314620462B46BDE8704018470429B8
:104630000ED100F114041420C2B101F061F9054655
:10464000FFF794FE20462946BDE8704000F0A8BB65
:1046500070BD836A00F128041420DD68002AC9D0E7
:1046600001F04EF90646FFF781FEDAE701F048F95E
:104670000546FFF791FE20462946BDE8704000F050
:104680008FBB00BF034B10B50446036000F0DEFB98
:10469000204610BD586D0008054B10B50446036058
:1046A00000F0D4FB1421204601F06EF9204610BD25
:1046B000586D000870B5057C04466B1E042B00F293
:1046C000A280DFE803F03C2D08030300022300254D
:1046D0000374284670BD00F0BDFB90F90430032B35
:1046E00045D0204600F0B6FB90F90430042B7FD073
:1046F000237C9D4200F08780042B4FF000053FD0C3
:10470000052B26D1414E3378BFF35B8FDB074DD5A8
:10471000617C3F48FFF790FE02232846237470BD5A
:1047200000F098FB90F90460032EE1D1204600F0E0
:1047300091FB8368022BDBD1267401250BE000F08E
:1047400089FB90F90430012BD2D102221D4622743C
:10475000BFE7032BBDD1204600F07AFB016823465A
:104760004FF47A728C690121A047284670BD20461B
:1047700000F070FB8368032BB3D10423012523745D
:104780002046224E00F064FB036822460121DB69CB
:1047900098473378BFF35B8FDA0718D5617C1C48E4
:1047A000FFF736FE02232846237470BD304601F021
:1047B000B8F80028ACD01648FFF7B2FE304601F03A
:1047C000BCF8144A1449124801F0D9F8A0E7304661
:1047D00001F0A7F80028E1D00D48FFF7A1FE304610
:1047E00001F0ABF80B4A0C49094801F0C8F8D5E7CD
:1047F000204600F031FB8368012B7FF479AF05225E
:104800001D4622747EE7002563E700BFF802002002
:10481000FC020020000000208944000810B500219F
:10482000044600F0EDFA034A012320462260237477
:1048300010BD00BF586D00084174704730B482B09D
:1048400005462046296205F1240402A984E80C00EB
:1048500001E90C0002B030BC704700BFA0F10400B9
:10486000FFF7ECBF074B03F1080103F124023833D3
:1048700010B50446C0E9001240F8083F00F0E6FA1F
:10488000204610BD786D0008A0F10400FFF7EABFD4
:10489000A0F10800FFF7E6BF094B03F1240203F182
:1048A0000801383310B50446C0E9001240F8083F4B
:1048B00000F0CCFA20462C2101F066F8204610BD0D
:1048C000786D0008A0F10800FFF7E6BFA0F1040032
:1048D000FFF7E2BF70B5104D04462B78BFF35B8F36
:1048E000DB0707D5A36804F108000C49DB68BDE8C5
:1048F00070401847284601F014F80028F2D0281D0F
:10490000FFF71CFD284601F018F8281D044A054948
:1049100001F035F8E6E700BF9C000020A000002071
:10492000000000202943000838B50F4A04460F4B09
:10493000002102600830636000F062FA0C4A012333
:10494000002102F1080002F12405383223762060AC
:1049500020466376A376E37623772162C4E9015289
:10496000C4E9091138BD00BF387100084C71000856
:10497000786D000838B5044604215C48FCF7E8F976
:10498000637E83425FD108215848FCF7E1F9A37E9A
:10499000834242D180215648FCF7DAF9E37E834214
:1049A00024D140215248FCF7D3F9237F834214D00D
:1049B00040214F48FCF7CCF9A26A256A5110636A7E
:1049C00060B9D20705EB01006BD401224021984762
:1049D00040214748FCF7BCF9207738BDD20705EBEA
:1049E000010061D4002240219847F1E7802140482E
:1049F000FCF7AEF9A26A256A5110636A002848D113
:104A0000D20705EB01006DD4012280219847802157
:104A10003748FCF79DF9E076C3E708213348FCF7F7
:104A200097F9A26A256A5110636A50BBD20705EB59
:104A3000010054D401220821984708212B48FCF793
:104A400087F9A076A6E704212848FCF781F9A26A35
:104A5000256A5110636A60B9D20705EB01003BD4A7
:104A600001220421984704212048FCF771F960765F
:104A700089E7D20705EB010028D4002204219847DA
:104A8000F1E7D20705EB01001AD40022082198476C
:104A9000D3E7D20705EB01000CD400228021984710
:104AA000B5E76A58D35890E76A584021D358002296
:104AB00098478DE76A588021D35800229847A6E787
:104AC0006A580821D35800229847B6E76A5804214B
:104AD000D35800229847C6E76A58D358C0E76A58A7
:104AE000D358A7E76A58D3588EE700BF002002408A
:104AF00000180240F8B5047E0546022C39D0032C7C
:104B000020D0012C02D000242046F8BD00F1080678
:104B1000304600F09FF990F90430012B21D02B7E14
:104B20009C42F0D0022B36D0032BECD1002430462F
:104B300000F08EF90168334664228D690121A8478F
:104B40002046F8BD00F10806304600F083F990F9E0
:104B50000430042BE3D1304600F07EF98368012B4A
:104B6000DDD1022301242B762846FFF703FF2046E0
:104B7000F8BD00F10806304600F06CF990F90470B9
:104B8000032FCCD1304600F065F98368012BC6D1E4
:104B90002F761C46CBE70024E6E700BFA0F1080013
:104BA000FFF7A8BF094A131813F8011C0A2909D0F6
:104BB000002110B40A241454597004485DF8044BC1
:104BC000FBF7F6BC0148FBF7F3BC00BFB4000020C4
:104BD0000FB400B583B00C4804AB53F8041B1A465D
:104BE000019301F067FB0848FBF7E2FC08B1FFF70F
:104BF000D9FF0549002201F5807000F08FF803B05D
:104C00005DF804EB04B07047B400002010B5002339
:104C1000064C074A2046194600F034F82046054A5B
:104C20000549BDE8104000F0AABE00BFB401002055
:104C3000E005002000000020714C0008054B1A68B8
:104C400022B95A681AB15A6801325A60704772B66E
:104C5000F9E700BF44020020044B1A682AB95A68D9
:104C6000013A5A605B6803B962B67047440200209B
:104C7000704700BF10B50446902100F085FE204625
:104C800010BD00BF70B5FF25002602290373057112
:104C90000D4D8660056008D80C4B53F821605EB955
:104CA00043F821000171826070BD05F10802084BD4
:104CB0001121084800F080FE05F10802064B1F2173
:104CC000044800F079FE00BFD86D00084C020020B7
:104CD0005871000870710008DC710008802A70B5F6
:104CE00010D800F10D0406461546204600F0DCFE03
:104CF000B068436F202BFCD1AAB22146BDE87040BA
:104D0000FDF706BD024B5021024A034800F054FE55
:104D1000E4710008186E00087071000870B5044650
:104D20000D461AB90846FBF743FC0246237B2BB11C
:104D300029462046BDE87040FFF7D0BF2946A0684D
:104D400092B23223BDE87040FDF78EBFDFF834D059
:104D5000002103E00C4B5B58435004310B480C4BD3
:104D600042189A42F6D30B4A02E0002342F8043B71
:104D7000094B9A42F9D3FFF74DF900F061FEFEF7B7
:104D8000CBF8704700000520847400080000002064
:104D90007800002078000020D0070020FEE7000007
:104DA0004368C8601A68184653691847407A7047C4
:104DB00041727047036810B5DB690446C1609847CB
:104DC0000023C0B2E360A0F10800B0FA80F040090F
:104DD00010BD00BF70B5044610202368DD6800F0E8
:104DE0008FFD064600F070F820463146A847237A2A
:104DF00003B970BD60680368BDE87040DB681847A0
:104E000038B5114A0023044601724372C360C0E9F9
:104E1000002389B100F0EEF903685B689847054606
:104E2000606000F0E7F903681B689847854201D18C
:104E300000232372204638BD00F0DCF903681B68AC
:104E4000984705466060ECE7546E0008704700BF65
:104E500040687047C0687047C06808B590F9043072
:104E6000042B00D108BD034B6521034A034800F021
:104E7000A3FD00BF04720008746E00083C720008B5
:104E8000704700BF10B50446142100F07DFD204698
:104E900010BD00BF70B40326044D012406710560E7
:104EA0000474C0E9021270BC704700BF9C72000815
:104EB00001207047704700BF10B50446102100F074
:104EC00063FD204610BD00BF10B401240449002238
:104ED000047101605DF8044BC0E90222704700BF15
:104EE000B06E000801207047704700BF10B504463F
:104EF000182100F049FD204610BD00BF70B4042603
:104F0000044D0261067105604261C0E9021370BC84
:104F1000704700BFC46E0008C268CB689A4201D0D7
:104F20000020704780688B68C01AB0FA80F0400992
:104F3000704700BF00207047002070470020704776
:104F400000230371704700BF10B50446102100F024
:104F50001BFD204610BD00BF2DE9F0410D46174650
:104F60001E4600F0A3FA04683A46334629466469AF
:104F7000A446BDE8F041604770B50C46154600F008
:104F800095FA03682A4621469B69BDE87040184798
:104F900008B5836B13B10123037108BD024B2221B5
:104FA000024A034800F008FDA8720008D06E00080D
:104FB000B0720008C868036810B59B690C46984732
:104FC00000B910BDE06803681B6998470028F8D055
:104FD000E0680028F5D00368BDE810405B6818471A
:104FE000704700BF70B5044600250A4E083040F8EF
:104FF000086C257100F01AFBA56300F051FCA0635A
:1050000008B1204670BD06F13002034B1821034859
:1050100000F0D2FC046F0008A8720008B07200080B
:10502000044B10B5044640F8083B00F045FB204611
:1050300010BD00BF046F0008064B10B5044640F8D1
:10504000083B00F039FB3C21204600F09DFC204647
:1050500010BD00BF046F000870B50446806B0D469C
:1050600003689B689847294604F1080000F044FB58
:10507000A06B0368BDE87040DB68184738B503795A
:1050800083B1044600F10805284600F0C5FA10B1C6
:105090002379002BF8D1236820469B6A984723790F
:1050A000002BF1D1002038BDF8B500F10805044609
:1050B000284600F0B1FA20B90646207918B9F8BDA3
:1050C00098472079F8BDA06B03689B6898472846ED
:1050D00000F0A4FB0746284600F0AEFBA06B036877
:1050E000DB689847002FECD0236839462046DB6AFE
:1050F000984797F904300B4A01333B689B6808BF17
:1051000026719342DDD0384698470028D9D03B68B5
:105110003846054A5B689342D2D1102100F034FC36
:105120002079F8BD354F0008494F0008043070471A
:1051300082B0002002A901E90C0002B0704700BF54
:1051400010B50D4C2378BFF35B8FDB0701D50B48FF
:1051500010BD204600F0E5FB0028F8D0201D00F02F
:10516000A9FB204600F0E9FB201D054A054900F097
:1051700006FC024810BD00BF5C0200206002002057
:1051800000000020815800080268034912688A4222
:1051900001D10430704710472D51000810B5104C54
:1051A000237ABFF35B8FDB0701D50E4810BD04F1F6
:1051B000080000F0B6FB0028F7D00B4B04F11000FC
:1051C000E360FFF70FFF04F1080000F0B6FB04F105
:1051D0000C00064A064900F0D2FB024810BD00BF91
:1051E0005C02002068020020686F000800000020B8
:1051F000F9510008FFF7D2BF044B10B5044640F840
:10520000043BFFF70DFF204610BD00BF686F00088C
:10521000064B10B5044640F8043BFFF701FF402160
:10522000204600F0B1FB204610BD00BF686F0008AB
:10523000416070474068704770B5084B05460646A8
:10524000036055F8080FA84205D0046800F078FB09
:10525000AC422046F9D1304670BD00BF886F0008CF
:1052600070B50A4B05460646036055F8080FA8427C
:1052700005D0046800F064FBAC422046F9D130460A
:10528000182100F081FB304670BD00BF886F000818
:10529000436813B90A2213464260184600F010BB57
:1052A0002DE9F0410E46174698460446182000F0B6
:1052B00027FB434631463A460546FFF71FFE236863
:1052C000204629461B6ABDE8F04118472DE9F04108
:1052D00086B007461346002268463E46FFF70EFE9C
:1052E000786903689B68984756F8084FB442694646
:1052F0001FD0A5682846FFF70FFE08B3D4F800803A
:105300002046B0451ED0D8F808106A694B6913448E
:105310004B613B69013B3B6100F03FFB204600F0E5
:105320000FFB2B68444628465B689847B4426946A1
:10533000DFD178690368DB68984706B0BDE8F08183
:105340002468D3E73B69013B3B6100F026FB204624
:10535000344600F0F5FA002DC8D0E2E72DE9F0411F
:105360004468002C52D000F10807836806469F422B
:1053700044D0706903689B689847B36899684B6923
:105380001B1B002B4B613BDC3269012A05D9B2683B
:10539000126890684269D31A4361C8680368DB6881
:1053A00098473369B468013B2046336100F0F5FA51
:1053B000204600F0C5FAB468BC4217D0A1684B691A
:1053C00023B113E0A9682C464B697BB9C868036810
:1053D000DB689847336925682046013B336100F05C
:1053E000DCFA204600F0ACFABD42EBD17069002433
:1053F0000368DB689847B368BB42BAD1BDE8F08167
:1054000070690368BDE8F041DB681847024B612111
:10541000024A034800F0D0FA1C730008AC6F000881
:105420002C73000838B5002103460B4D044641603B
:1054300043F8085B01614161C0E9023300F030FAD2
:10544000606108B1204638BD05F15402034B1D21AF
:10545000034800F0B1FA00BF886F0008A872000886
:105460002C73000810B50D4C2378BFF35B8FDB075E
:1054700001D50B4810BD204600F053FA0028F8D0A3
:10548000201DFFF7CFFF204600F057FA201D054AE8
:10549000054900F074FA024810BD00BFA8020020C0
:1054A000AC0200200000002039520008FFF7DABFEC
:1054B000F8B5174604460C200E4600F021FA3B686A
:1054C00031460546836000F061FAA368284601333F
:1054D000A360F8BDF0B500F10806836883B0074605
:1054E0009E42019143D0406903689B689847BC681D
:1054F000A6420FD0A36801995D694B69AB4204DCF9
:1055000013E0A2685569AB420FDD24685B1BB4420F
:105510004B61F6D101AA31463046FFF7C9FF7869E1
:105520000368DB68984703B0F0BD9D4213D1216842
:105530008E4203D106E009688E4225D08B685B69F4
:10554000002BF8D001AA3046FFF7B2FF019A536949
:105550005D1B5561E3E701AA21463046FFF7A8FF2E
:10556000A2680199536949695B1A5361D7E70C2016
:1055700000F0C6F9019B3146836000F007FA3B69F1
:1055800001333B6103B0F0BD3146DBE710B50446A3
:10559000FFF78CFF0268074992688A4204D1064BE4
:1055A000012244601A7010BD21469047024B01222F
:1055B0001A7010BD31520008C4020020024B1B7843
:1055C00003B17047FFF7E2BFC402002010B5FFF738
:1055D0006DFF03681B699847FFF70CFE03681B68A3
:1055E00098470368DB689847FFF704FE03681B6869
:1055F000984703689B68984748B90446FFF7FAFD47
:1056000003681B689847036821465B6A9847002037
:1056100010BD00BFFFF7DABF026A0069101AB0FAC6
:1056200080F04009704700BF00207047174B70B5ED
:10563000044640F8043B00F03DF9002308222020F6
:10564000C4E90232C4E90433C4E90633C4E90833C7
:10565000C4E90A3300F054F9E56806464FF40070D7
:10566000013DA66000F04CF903466D08204603F5A5
:105670000072636106EB850146F825306362E161E3
:10568000E16223612362A261A26270BD187000080A
:1056900070B50646006868B1756A74690435AC4235
:1056A00006D254F8040B00F04BF9A542F9D8306843
:1056B00000F046F9304670BD054B10B5044640F881
:1056C000083BFFF7E5FF201D00F0DAF8204610BD8B
:1056D00018700008074B10B5044640F8083BFFF768
:1056E000D7FF201D00F0CCF82046302100F04CF907
:1056F000204610BD187000082DE9F04D051D044628
:105700000E46284600F0C8F8A26A236A043A93427B
:1057100009D003B11E6004332846236200F0BEF8AE
:105720000120BDE8F08DD4E90202E76A3B1AA2EB42
:10573000A303012B16D94FF4007000F0E1F8786054
:10574000236A03B11E60E36A28465A68043302F5EF
:105750000071C4E90822C4E90A1300F09FF801208F
:10576000BDE8F08DE169A7EB010A4FEAAA0A0AF148
:10577000010A0AF10108B2EB480F33D8002A41D0E0
:105780005200971CB7F1804F46D2B800A7EB08082B
:1057900000F0B6F8E26AE1694FEA5808043283463D
:1057A00000EB88088A4203D0521A404600F087F97D
:1057B000A06800F0C5F8C4E902B7D8F800206FF07F
:1057C0004043C4F81C80534402F5007108EB830782
:1057D000C4E9052158F82330E76203F50072C4E9F3
:1057E0000932A8E7A2EB080804374FEA58087A1AEA
:1057F00000EB8808414507D9B942DED0404600F0A9
:105800005EF9DAE70327C0E7B942D6D0C2EB8A00D7
:10581000404400F054F9D0E700F0C4F838B5041D56
:105820000546204600F038F82B6920461C6800F039
:1058300035F8204638BD00BF38B5051D044628465A
:1058400000F02AF8A2692369043A934206D004338F
:1058500028462361BDE8384000F020B8606900F0B8
:105860006FF8E36928465A68043302F50071C4E909
:105870000422C4E90613BDE8384000F00FB800BFA9
:10588000704700BF0120704710B50446042100F0A6
:105890007BF8204610BD00BFFFF7D0B9FFF7DCB999
:1058A00008B5042000F02CF8014B036008BD00BFD0
:1058B0003C700008014B0360704700BF3C7000085B
:1058C000704700BF10B50123044C2360FFF7EEFDC5
:1058D0000368DB6998470023236010BD4402002061
:1058E00010B5FFF7E3FD02680449D2688A4201D18E
:1058F000406810BDBDE81040104700BF3552000899
:1059000010B5002814BF04460124204600F0BCF85E
:1059100030B900F01BF808B900F047F88047F4E709
:1059200010BD0368DB0706D4437803B1FFDE012313
:10593000437018467047002070470123036070478A
:1059400000F0AAB808B500F015F80000024B18687E
:10595000BFF35B8F704700BF7C03002008B5804712
:1059600000F023F8024B1868BFF35B8F704700BF4D
:105970001000002008B5FFF7F5FFFFF7EFFF0B461B
:105980000146184600F036B8FFF7DABF4B684360AF
:105990004B680160186048607047D0E900321360BE
:1059A0005A60704708B500F000F808B5062000F00E
:1059B0004FFC0120FEF7E0FA1FB51C46094B1B689F
:1059C0000546D86852B1084B0091CDE9013207492C
:1059D0002B46224600F022F8FFF7E7FF044B1A4659
:1059E000F2E700BF140000209C730008A9730008B0
:1059F000D773000810B5054C13462CB10A46014672
:105A00000220AFF3008010BD2046FCE7000000003C
:105A1000014B1868704700BF140000200EB403B596
:105A2000014603AB054853F8042B0068019300F0CE
:105A300039F902B05DF804EB03B0704714000020A0
:105A400070B50D4E0D4CA41BA4100025A54209D124
:105A50000B4E0C4C01F004F9A41BA4100025A54228
:105A600005D170BD56F8253098470135EEE756F858
:105A7000253098470135F2E77874000878740008FB
:105A80007874000880740008024B0146186800F022
:105A900085B800BF14000020024B0146186800F0D2
:105AA0002FB800BF1400002010B5431E0A449142D5
:105AB00000D110BD11F8014B03F8014FF7E7884200
:105AC00010B501EB020307D8421E99420AD011F823
:105AD000014B02F8014FF8E78342F5D98118D21A39
